S0180000496E63756261746F722053797374656D2E73726563C0
S11300000C9434000C9451000C9451000C94510045
S11300100C9451000C9451000C9451000C94510018
S11300200C9451000C9451000C9451000C94510008
S11300300C9451000C9451000C9451000C945100F8
S11300400C9451000C9451000C9451000C945100E8
S11300500C9451000C9451000C9451000C945100D8
S11300600C9451000C94510011241FBECFEFD8E022
S1130070DEBFCDBF11E0A0E0B1E0ECE1FDE002C0E5
S113008005900D92AC33B107D9F721E0ACE3B1E0B0
S113009001C01D92A336B207E1F70E94DB040C9461
S11300A08C060C9400008E6080937C009068909382
S11300B07A000895ECE7F0E090819078892B8064D1
S11300C08083EAE7F0E080818064808380917A0015
S11300D086FDFCCF209178008091790090E0982FE4
S11300E08827822B08958334F1F08434A9F1823473
S11300F009F04AC0413059F424B181E090E002C0D3
S1130100880F991F6A95E2F7822B84B9089524B168
S113011081E090E002C0880F991F6A95E2F780950C
S1130120822384B90895413059F427B181E090E0E5
S113013002C0880F991F6A95E2F7822B87B9089548
S113014027B181E090E002C0880F991F6A95E2F719
S11301508095822387B90895413059F42AB181E00A
S113016090E002C0880F991F6A95E2F7822B8AB942
S113017008952AB181E090E002C0880F991F6A9522
S1130180E2F7809582238AB908958334F1F08434A8
S1130190A9F1823409F04AC0413059F425B181E013
S11301A090E002C0880F991F6A95E2F7822B85B907
S11301B0089525B181E090E002C0880F991F6A95E7
S11301C0E2F78095822385B90895413059F428B126
S11301D081E090E002C0880F991F6A95E2F7822BB4
S11301E088B9089528B181E090E002C0880F991F72
S11301F06A95E2F78095822388B90895413059F4CD
S11302002BB181E090E002C0880F991F6A95E2F754
S1130210822B8BB908952BB181E090E002C0880F46
S1130220991F6A95E2F7809582238BB908950E94FD
S1130230F204089588EC0E94020508950E940205C4
S1130240089580E00E94020508956AE070E084E564
S113025091E00E94350580915401809345018034DA
S113026009F04BC0E4E5F1E08181809348015281BB
S113027050934401338130935301448140935E0190
S1130280258120934F01868180935001878180933B
S11302906101708570936201918590934E0180E0B5
S11302A006C0E82FF0E0EC5AFE4F10828F5F8A30D0
S11302B0C0F3330F632F660F660F360F530F50933F
S11302C05201220F322F330F330F230F420F40936B
S11302D05101892F880F982F990F990F890F870F34
S11302E0809360012FEF89E698E12150804090408F
S11302F0E1F700C000000E94120408950E94420425
S113030080935F0124C00E94420480935F0180E0D7
S113031091E00E94050480915F0180934601E9E425
S1130320F1E08CE480838FE58183CF010E941F0577
S11303300E94E6042FEF83ED90E32150804090402B
S1130340E1F700C0000080915401803431F09091B5
S11303505F01809152019817B0F20E94EC0424C00E
S11303600E94420480935F018EE091E00E940504A4
S113037080915F0180934601E9E4F1E088E48083A1
S11303808FE58183CF010E941F050E941A012FEF80
S113039083ED90E3215080409040E1F700C00000DD
S11303A080915401803431F090915F01809151012A
S11303B08917B0F20E9421018DE191E00E940504A9
S11303C080915F0180934601E9E4F1E08FE480834A
S11303D08FE58183CF010E941F052FEF83ED90E30A
S11303E0215080409040E1F700C0000008950E9431
S11303F0420480935F01909152018917B0F40E94E6
S1130400420480935F0180E091E00E9405048091A2
S11304105F0180934601E9E4F1E08CE480838FE599
S11304208183CF010E941F052BC090915101981721
S1130430B0F40E94420480935F018EE091E00E9438
S1130440050480915F0180934601E9E4F1E088E4CA
S113045080838FE58183CF010E941F0511C08DE148
S113046091E00E94050480915F0180934601E9E4D4
S1130470F1E08FE480838FE58183CF010E941F0523
S113048080915001893559F490916101993539F47D
S1130490809160010E941E010E94E604089589353E
S11304A059F4909161019E3439F4809160010E9465
S11304B01E010E94EC0408958E3449F49091610168
S11304C0993529F40E9421010E94E60408958E348E
S11304D041F4809161018E3421F40E9421010E9433
S11304E0EC04089580914801813419F08D3419F099
S11304F008950E947E010E94F70108950E942F032F
S11305000E943D040E9405050E9417010E94E00418
S113051060E080E00E941C0487E291E00E940504F0
S113052062E082E00E941C0487E391E00E940504DB
S11305302FEF8BE792E9215080409040E1F700C013
S113054000000E94120408950E9425010E94720274
S1130550089541E064E084E40E94C50083EF91E0E3
S11305600197F1F700C0000040E064E084E40E94D9
S1130570C50083EF91E00197F1F700C000000895F2
S1130580CF93C82F482F417065E084E40E94C500D2
S11305904C2F427050E05595479566E084E40E94E4
S11305A0C5004C2F447050E0559547955595479597
S11305B067E084E40E94C5004C2F487050E05595D4
S11305C04795559547955595479560E082E40E9477
S11305D0C5004C2F407150E055954795559547956A
S11305E0559547955595479561E082E40E94C5006D
S11305F04C2F407250E05595479555954795559524
S11306004795559547955595479562E082E40E9434
S1130610C5004C2F407450E0042E452F000C441F9D
S1130620550B000C441F551F64E082E40E94C50072
S11306304C2F441F4427441F65E082E40E94C500F8
S113064040E062E084E40E94C5000E94A90289EFB0
S113065090E00197F1F700C00000CF9108958FE476
S113066093EC0197F1F700C0000041E065E084E4F9
S11306700E94730041E066E084E40E94730041E05C
S113068067E084E40E94730041E060E082E40E9439
S1130690730041E061E082E40E94730041E062E0A3
S11306A082E40E94730041E064E082E40E947300EB
S11306B041E065E082E40E94730041E064E084E488
S11306C00E94730041E063E084E40E94730041E00F
S11306D062E084E40E94730040E063E084E40E94EA
S11306E0C50088E30E94C00289EF90E00197F1F70A
S11306F000C000008EE00E94C00289EF90E00197E4
S1130700F1F700C0000081E00E94C00283EC99E090
S11307100197F1F700C0000086E00E94C00289EF53
S113072090E00197F1F700C000000895CF93C82F1F
S1130730482F417065E084E40E94C5004C2F42704C
S113074050E05595479566E084E40E94C5004C2F1F
S1130750447050E0559547955595479567E084E476
S11307600E94C5004C2F487050E05595479555950B
S113077047955595479560E082E40E94C5004C2F4B
S1130780407150E055954795559547955595479532
S11307905595479561E082E40E94C5004C2F407254
S11307A050E05595479555954795559547955595D9
S11307B047955595479562E082E40E94C5004C2F09
S11307C0407450E0042E452F000C441F550B000CC0
S11307D0441F551F64E082E40E94C5004C2F441F4F
S11307E04427441F65E082E40E94C50041E062E0C2
S11307F084E40E94C5000E94A90289EF90E0019759
S1130800F1F700C00000CF910895CF93DF93EC017E
S113081003C00E949603219688818111FACFDF914B
S1130820CF91089581E00E94C00283EC99E0019782
S1130830F1F700C0000008959FEF980F923070F414
S1130840613170F4662371F0813019F42FE7260FBB
S11308500AC0823041F42FEB260F05C020E803C004
S113086020E801C020E8822F0E94C00289EF90E0B6
S11308700197F1F700C00000089580E497E00E941A
S11308805300089580E00E945A009093430180939E
S11308904201BC0180E090E00E94EF052DEC3CECAD
S11308A04CE050E40E944E050E94C0057093410143
S11308B06093400140914001509141019A01ADEC97
S11308C0BCEC0E947D06969587959695879596959E
S11308D087959C01220F331F880F991F880F991F3A
S11308E0880F991F820F931F9A01281B390B20939D
S11308F03C0120914001309141010E947D06969572
S11309008795969587959695879580933F01309125
S11309103F018DEC389F912D1124969596959695CF
S1130920990F292F220F220F920F391B30933D016B
S113093090913F01989F912D1124969596959695A7
S113094090933F0120913F01289F812D112486958A
S113095086958695880F982F990F990F890F281BD4
S113096020933E0160E070E080E090E00E941C046F
S113097080913D0190E0C0960E94960362E070E091
S113098081E090E00E941C0480913C0190E0C096BC
S11309900E94960380913D01E9E4F1E0805D828349
S11309A080913C01805D83838FEF8483809140013B
S11309B09091410108950E947E020E94A402FDCFFD
S11309C041E061E083E40E947300089541E061E046
S11309D083E40E94C500089540E061E083E40E943E
S11309E0C500089541E063E082E40E947300E0EBF7
S11309F0F0E0808183688083E1EBF0E080818160B6
S1130A00808308958093B30008951092C50087E60B
S1130A108093C40086E08093C20088E18093C10083
S1130A2008959091C00095FFFCCF8093C60008956F
S1130A308091C0008823E4F78091C6000895CF9385
S1130A40DF93EC010CC00E94110521962FEF81EE7B
S1130A5094E0215080409040E1F700C0000088817C
S1130A608F3F89F7DF91CF9108950F931F93CF9311
S1130A70DF938C01D62FC0E00E94180591E09C0FF3
S1130A80F801EC0FF11D80839D1718F4C92F8132F2
S1130A9099F7DF91CF911F910F9108950E946205FC
S1130AA00C9443060E943C0658F00E94350640F020
S1130AB029F45F3F29F00C942C0651110C9477060D
S1130AC00C9432060E94540668F39923B1F355231B
S1130AD091F3951B550BBB27AA276217730784074D
S1130AE038F09F5F5F4F220F331F441FAA1FA9F3E3
S1130AF035D00E2E3AF0E0E832D091505040E695D1
S1130B00001CCAF72BD0FE2F29D0660F771F881F31
S1130B10BB1F261737074807AB07B0E809F0BB0B24
S1130B20802DBF01FF2793585F4F3AF09E3F510538
S1130B3078F00C942C060C9477065F3FE4F3983E0F
S1130B40D4F3869577956795B795F7959F5FC9F721
S1130B50880F911D9695879597F90895E1E0660FA2
S1130B60771F881FBB1F621773078407BA0720F01B
S1130B70621B730B840BBA0BEE1F88F7E095089584
S1130B800E945C0688F09F5798F0B92F9927B751B7
S1130B90B0F0E1F0660F771F881F991F1AF0BA951D
S1130BA0C9F714C0B13091F00E947606B1E00895FF
S1130BB00C947606672F782F8827B85F39F0B93FF1
S1130BC0CCF3869577956795B395D9F73EF49095D0
S1130BD08095709561957F4F8F4F9F4F0895E8944E
S1130BE009C097FB3EF490958095709561957F4F71
S1130BF08F4F9F4F9923A9F0F92F96E9BB2793951F
S1130C00F695879577956795B795F111F8CFFAF42E
S1130C10BB0F11F460FF1BC06F5F7F4F8F4F9F4F5F
S1130C2016C0882311F096E911C0772321F09EE8BD
S1130C30872F762F05C0662371F096E8862F70E023
S1130C4060E02AF09A95660F771F881FDAF7880FFD
S1130C509695879597F9089597F99F6780E870E0CE
S1130C6060E008959FEF80EC089500240A9416161E
S1130C70170618060906089500240A941216130686
S1130C80140605060895092E0394000C11F4882314
S1130C9052F0BB0F40F4BF2B11F460FF04C06F5F30
S1130CA07F4F8F4F9F4F089557FD9058440F551F06
S1130CB059F05F3F71F04795880F97FB991F61F0DA
S1130CC09F3F79F087950895121613061406551F51
S1130CD0F2CF4695F1DF08C0161617061806991FBD
S1130CE0F1CF86957105610508940895E894BB27B2
S1130CF066277727CB0197F90895A29FB001B39F88
S1130D00C001A39F700D811D1124911DB29F700D10
S10F0D10811D1124911D0895F894FFCF5B
S1130D1C20432C204C4F572054454D502000204349
S1130D2C2C20484947482054454D50200020432C42
S1130D3C204F4B4159200057454C434F4D452054AF
S10F0D4C4F20494E432E005359532E00F3
S9030000FC
